{
  "_format": "hh-sol-artifact-1",
  "contractName": "ERC721A",
  "sourceName": "contracts/ERC721A.sol",
  "abi": [
    {
      "inputs": [
        {
          "internalType": "string",
          "name": "name_",
          "type": "string"
        },
        {
          "internalType": "string",
          "name": "symbol_",
          "type": "string"
        },
        {
          "internalType": "uint256",
          "name": "maxBatchSize_",
          "type": "uint256"
        },
        {
          "internalType": "uint256",
          "name": "collectionSize_",
          "type": "uint256"
        }
      ],
      "stateMutability": "nonpayable",
      "type": "constructor"
    },
    {
      "anonymous": false,
      "inputs": [
        {
          "indexed": true,
          "internalType": "address",
          "name": "owner",
          "type": "address"
        },
        {
          "indexed": true,
          "internalType": "address",
          "name": "approved",
          "type": "address"
        },
        {
          "indexed": true,
          "internalType": "uint256",
          "name": "tokenId",
          "type": "uint256"
        }
      ],
      "name": "Approval",
      "type": "event"
    },
    {
      "anonymous": false,
      "inputs": [
        {
          "indexed": true,
          "internalType": "address",
          "name": "owner",
          "type": "address"
        },
        {
          "indexed": true,
          "internalType": "address",
          "name": "operator",
          "type": "address"
        },
        {
          "indexed": false,
          "internalType": "bool",
          "name": "approved",
          "type": "bool"
        }
      ],
      "name": "ApprovalForAll",
      "type": "event"
    },
    {
      "anonymous": false,
      "inputs": [
        {
          "indexed": true,
          "internalType": "address",
          "name": "from",
          "type": "address"
        },
        {
          "indexed": true,
          "internalType": "address",
          "name": "to",
          "type": "address"
        },
        {
          "indexed": true,
          "internalType": "uint256",
          "name": "tokenId",
          "type": "uint256"
        }
      ],
      "name": "Transfer",
      "type": "event"
    },
    {
      "inputs": [
        {
          "internalType": "address",
          "name": "to",
          "type": "address"
        },
        {
          "internalType": "uint256",
          "name": "tokenId",
          "type": "uint256"
        }
      ],
      "name": "approve",
      "outputs": [],
      "stateMutability": "nonpayable",
      "type": "function"
    },
    {
      "inputs": [
        {
          "internalType": "address",
          "name": "owner",
          "type": "address"
        }
      ],
      "name": "balanceOf",
      "outputs": [
        {
          "internalType": "uint256",
          "name": "",
          "type": "uint256"
        }
      ],
      "stateMutability": "view",
      "type": "function"
    },
    {
      "inputs": [
        {
          "internalType": "uint256",
          "name": "tokenId",
          "type": "uint256"
        }
      ],
      "name": "getApproved",
      "outputs": [
        {
          "internalType": "address",
          "name": "",
          "type": "address"
        }
      ],
      "stateMutability": "view",
      "type": "function"
    },
    {
      "inputs": [
        {
          "internalType": "address",
          "name": "owner",
          "type": "address"
        },
        {
          "internalType": "address",
          "name": "operator",
          "type": "address"
        }
      ],
      "name": "isApprovedForAll",
      "outputs": [
        {
          "internalType": "bool",
          "name": "",
          "type": "bool"
        }
      ],
      "stateMutability": "view",
      "type": "function"
    },
    {
      "inputs": [],
      "name": "name",
      "outputs": [
        {
          "internalType": "string",
          "name": "",
          "type": "string"
        }
      ],
      "stateMutability": "view",
      "type": "function"
    },
    {
      "inputs": [],
      "name": "nextOwnerToExplicitlySet",
      "outputs": [
        {
          "internalType": "uint256",
          "name": "",
          "type": "uint256"
        }
      ],
      "stateMutability": "view",
      "type": "function"
    },
    {
      "inputs": [
        {
          "internalType": "uint256",
          "name": "tokenId",
          "type": "uint256"
        }
      ],
      "name": "ownerOf",
      "outputs": [
        {
          "internalType": "address",
          "name": "",
          "type": "address"
        }
      ],
      "stateMutability": "view",
      "type": "function"
    },
    {
      "inputs": [
        {
          "internalType": "address",
          "name": "from",
          "type": "address"
        },
        {
          "internalType": "address",
          "name": "to",
          "type": "address"
        },
        {
          "internalType": "uint256",
          "name": "tokenId",
          "type": "uint256"
        }
      ],
      "name": "safeTransferFrom",
      "outputs": [],
      "stateMutability": "nonpayable",
      "type": "function"
    },
    {
      "inputs": [
        {
          "internalType": "address",
          "name": "from",
          "type": "address"
        },
        {
          "internalType": "address",
          "name": "to",
          "type": "address"
        },
        {
          "internalType": "uint256",
          "name": "tokenId",
          "type": "uint256"
        },
        {
          "internalType": "bytes",
          "name": "_data",
          "type": "bytes"
        }
      ],
      "name": "safeTransferFrom",
      "outputs": [],
      "stateMutability": "nonpayable",
      "type": "function"
    },
    {
      "inputs": [
        {
          "internalType": "address",
          "name": "operator",
          "type": "address"
        },
        {
          "internalType": "bool",
          "name": "approved",
          "type": "bool"
        }
      ],
      "name": "setApprovalForAll",
      "outputs": [],
      "stateMutability": "nonpayable",
      "type": "function"
    },
    {
      "inputs": [
        {
          "internalType": "bytes4",
          "name": "interfaceId",
          "type": "bytes4"
        }
      ],
      "name": "supportsInterface",
      "outputs": [
        {
          "internalType": "bool",
          "name": "",
          "type": "bool"
        }
      ],
      "stateMutability": "view",
      "type": "function"
    },
    {
      "inputs": [],
      "name": "symbol",
      "outputs": [
        {
          "internalType": "string",
          "name": "",
          "type": "string"
        }
      ],
      "stateMutability": "view",
      "type": "function"
    },
    {
      "inputs": [
        {
          "internalType": "uint256",
          "name": "index",
          "type": "uint256"
        }
      ],
      "name": "tokenByIndex",
      "outputs": [
        {
          "internalType": "uint256",
          "name": "",
          "type": "uint256"
        }
      ],
      "stateMutability": "view",
      "type": "function"
    },
    {
      "inputs": [
        {
          "internalType": "address",
          "name": "owner",
          "type": "address"
        },
        {
          "internalType": "uint256",
          "name": "index",
          "type": "uint256"
        }
      ],
      "name": "tokenOfOwnerByIndex",
      "outputs": [
        {
          "internalType": "uint256",
          "name": "",
          "type": "uint256"
        }
      ],
      "stateMutability": "view",
      "type": "function"
    },
    {
      "inputs": [
        {
          "internalType": "uint256",
          "name": "tokenId",
          "type": "uint256"
        }
      ],
      "name": "tokenURI",
      "outputs": [
        {
          "internalType": "string",
          "name": "",
          "type": "string"
        }
      ],
      "stateMutability": "view",
      "type": "function"
    },
    {
      "inputs": [],
      "name": "totalSupply",
      "outputs": [
        {
          "internalType": "uint256",
          "name": "",
          "type": "uint256"
        }
      ],
      "stateMutability": "view",
      "type": "function"
    },
    {
      "inputs": [
        {
          "internalType": "address",
          "name": "from",
          "type": "address"
        },
        {
          "internalType": "address",
          "name": "to",
          "type": "address"
        },
        {
          "internalType": "uint256",
          "name": "tokenId",
          "type": "uint256"
        }
      ],
      "name": "transferFrom",
      "outputs": [],
      "stateMutability": "nonpayable",
      "type": "function"
    }
  ],
  "bytecode": "0x60c06040526000805560006007553480156200001a57600080fd5b5060405162001c1e38038062001c1e8339810160408190526200003d91620002a7565b60008111620000aa5760405162461bcd60e51b815260206004820152602e60248201527f455243373231413a20636f6c6c656374696f6e206d757374206861766520612060448201526d6e6f6e7a65726f20737570706c7960901b60648201526084015b60405180910390fd5b600082116200010c5760405162461bcd60e51b815260206004820152602760248201527f455243373231413a206d61782062617463682073697a65206d757374206265206044820152666e6f6e7a65726f60c81b6064820152608401620000a1565b8351620001219060019060208701906200014a565b508251620001379060029060208601906200014a565b5060a09190915260805250620003749050565b828054620001589062000321565b90600052602060002090601f0160209004810192826200017c5760008555620001c7565b82601f106200019757805160ff1916838001178555620001c7565b82800160010185558215620001c7579182015b82811115620001c7578251825591602001919060010190620001aa565b50620001d5929150620001d9565b5090565b5b80821115620001d55760008155600101620001da565b600082601f8301126200020257600080fd5b81516001600160401b03808211156200021f576200021f6200035e565b604051601f8301601f19908116603f011681019082821181831017156200024a576200024a6200035e565b816040528381526020925086838588010111156200026757600080fd5b600091505b838210156200028b57858201830151818301840152908201906200026c565b838211156200029d5760008385830101525b9695505050505050565b60008060008060808587031215620002be57600080fd5b84516001600160401b0380821115620002d657600080fd5b620002e488838901620001f0565b95506020870151915080821115620002fb57600080fd5b506200030a87828801620001f0565b604087015160609097015195989097509350505050565b600181811c908216806200033657607f821691505b602082108114156200035857634e487b7160e01b600052602260045260246000fd5b50919050565b634e487b7160e01b600052604160045260246000fd5b60805160a0516118806200039e60003960008181611005015261102f0152600050506118806000f3fe608060405234801561001057600080fd5b506004361061011b5760003560e01c80634f6ccce7116100b2578063a22cb46511610081578063c87b56dd11610066578063c87b56dd1461024f578063d7224ba014610262578063e985e9c51461026b57600080fd5b8063a22cb46514610229578063b88d4fde1461023c57600080fd5b80634f6ccce7146101e85780636352211e146101fb57806370a082311461020e57806395d89b411461022157600080fd5b806318160ddd116100ee57806318160ddd1461019d57806323b872dd146101af5780632f745c59146101c257806342842e0e146101d557600080fd5b806301ffc9a71461012057806306fdde0314610148578063081812fc1461015d578063095ea7b314610188575b600080fd5b61013361012e3660046115b9565b6102a7565b60405190151581526020015b60405180910390f35b610150610378565b60405161013f91906116a3565b61017061016b3660046115f3565b61040a565b6040516001600160a01b03909116815260200161013f565b61019b61019636600461158f565b6104aa565b005b6000545b60405190815260200161013f565b61019b6101bd36600461143b565b6105dd565b6101a16101d036600461158f565b6105e8565b61019b6101e336600461143b565b610780565b6101a16101f63660046115f3565b61079b565b6101706102093660046115f3565b610817565b6101a161021c3660046113ed565b610829565b6101506108d5565b61019b610237366004611553565b6108e4565b61019b61024a366004611477565b6109a9565b61015061025d3660046115f3565b610a38565b6101a160075481565b610133610279366004611408565b6001600160a01b03918216600090815260066020908152604080832093909416825291909152205460ff1690565b60006001600160e01b031982167f80ac58cd00000000000000000000000000000000000000000000000000000000148061030a57506001600160e01b031982167f5b5e139f00000000000000000000000000000000000000000000000000000000145b8061033e57506001600160e01b031982167f780e9d6300000000000000000000000000000000000000000000000000000000145b8061037257507f01ffc9a7000000000000000000000000000000000000000000000000000000006001600160e01b03198316145b92915050565b60606001805461038790611798565b80601f01602080910402602001604051908101604052809291908181526020018280546103b390611798565b80156104005780601f106103d557610100808354040283529160200191610400565b820191906000526020600020905b8154815290600101906020018083116103e357829003601f168201915b5050505050905090565b6000610417826000541190565b61048e5760405162461bcd60e51b815260206004820152602d60248201527f455243373231413a20617070726f76656420717565727920666f72206e6f6e6560448201527f78697374656e7420746f6b656e0000000000000000000000000000000000000060648201526084015b60405180910390fd5b506000908152600560205260409020546001600160a01b031690565b60006104b582610817565b9050806001600160a01b0316836001600160a01b0316141561053f5760405162461bcd60e51b815260206004820152602260248201527f455243373231413a20617070726f76616c20746f2063757272656e74206f776e60448201527f65720000000000000000000000000000000000000000000000000000000000006064820152608401610485565b336001600160a01b038216148061055b575061055b8133610279565b6105cd5760405162461bcd60e51b815260206004820152603960248201527f455243373231413a20617070726f76652063616c6c6572206973206e6f74206f60448201527f776e6572206e6f7220617070726f76656420666f7220616c6c000000000000006064820152608401610485565b6105d8838383610b20565b505050565b6105d8838383610b94565b60006105f383610829565b82106106675760405162461bcd60e51b815260206004820152602260248201527f455243373231413a206f776e657220696e646578206f7574206f6620626f756e60448201527f64730000000000000000000000000000000000000000000000000000000000006064820152608401610485565b600080549080805b83811015610711576000818152600360209081526040918290208251808401909352546001600160a01b038116808452600160a01b90910467ffffffffffffffff1691830191909152156106c257805192505b876001600160a01b0316836001600160a01b031614156106fe57868414156106f05750935061037292505050565b836106fa816117d3565b9450505b5080610709816117d3565b91505061066f565b5060405162461bcd60e51b815260206004820152602e60248201527f455243373231413a20756e61626c6520746f2067657420746f6b656e206f662060448201527f6f776e657220627920696e6465780000000000000000000000000000000000006064820152608401610485565b6105d8838383604051806020016040528060008152506109a9565b6000805482106108135760405162461bcd60e51b815260206004820152602360248201527f455243373231413a20676c6f62616c20696e646578206f7574206f6620626f7560448201527f6e647300000000000000000000000000000000000000000000000000000000006064820152608401610485565b5090565b600061082282610f70565b5192915050565b60006001600160a01b0382166108a75760405162461bcd60e51b815260206004820152602b60248201527f455243373231413a2062616c616e636520717565727920666f7220746865207a60448201527f65726f20616464726573730000000000000000000000000000000000000000006064820152608401610485565b506001600160a01b03166000908152600460205260409020546fffffffffffffffffffffffffffffffff1690565b60606002805461038790611798565b6001600160a01b03821633141561093d5760405162461bcd60e51b815260206004820152601a60248201527f455243373231413a20617070726f766520746f2063616c6c65720000000000006044820152606401610485565b3360008181526006602090815260408083206001600160a01b03871680855290835292819020805460ff191686151590811790915590519081529192917f17307eab39ab6107e8899845ad3d59bd9653f200f220920489ca2b5937696c31910160405180910390a35050565b6109b4848484610b94565b6109c08484848461113b565b610a325760405162461bcd60e51b815260206004820152603360248201527f455243373231413a207472616e7366657220746f206e6f6e204552433732315260448201527f6563656976657220696d706c656d656e746572000000000000000000000000006064820152608401610485565b50505050565b6060610a45826000541190565b610ab75760405162461bcd60e51b815260206004820152602f60248201527f4552433732314d657461646174613a2055524920717565727920666f72206e6f60448201527f6e6578697374656e7420746f6b656e00000000000000000000000000000000006064820152608401610485565b6000610ace60408051602081019091526000815290565b90506000815111610aee5760405180602001604052806000815250610b19565b80610af88461129f565b604051602001610b09929190611638565b6040516020818303038152906040525b9392505050565b60008281526005602052604080822080547fffffffffffffffffffffffff0000000000000000000000000000000000000000166001600160a01b0387811691821790925591518593918516917f8c5be1e5ebec7d5bd14f71427d1e84f3dd0314c0f7b2291e5b200ac8c7c3b92591a4505050565b6000610b9f82610f70565b80519091506000906001600160a01b0316336001600160a01b03161480610bd6575033610bcb8461040a565b6001600160a01b0316145b80610be857508151610be89033610279565b905080610c5d5760405162461bcd60e51b815260206004820152603260248201527f455243373231413a207472616e736665722063616c6c6572206973206e6f742060448201527f6f776e6572206e6f7220617070726f76656400000000000000000000000000006064820152608401610485565b846001600160a01b031682600001516001600160a01b031614610ce85760405162461bcd60e51b815260206004820152602660248201527f455243373231413a207472616e736665722066726f6d20696e636f727265637460448201527f206f776e657200000000000000000000000000000000000000000000000000006064820152608401610485565b6001600160a01b038416610d645760405162461bcd60e51b815260206004820152602560248201527f455243373231413a207472616e7366657220746f20746865207a65726f20616460448201527f64726573730000000000000000000000000000000000000000000000000000006064820152608401610485565b610d746000848460000151610b20565b6001600160a01b0385166000908152600460205260408120805460019290610daf9084906fffffffffffffffffffffffffffffffff1661170d565b82546101009290920a6fffffffffffffffffffffffffffffffff8181021990931691831602179091556001600160a01b03861660009081526004602052604081208054600194509092610e04918591166116b6565b82546fffffffffffffffffffffffffffffffff9182166101009390930a9283029190920219909116179055506040805180820182526001600160a01b03808716825267ffffffffffffffff428116602080850191825260008981526003909152948520935184549151909216600160a01b026001600160e01b03199091169190921617179055610e958460016116e1565b6000818152600360205260409020549091506001600160a01b0316610f2757610ebf816000541190565b15610f275760408051808201825284516001600160a01b03908116825260208087015167ffffffffffffffff9081168285019081526000878152600390935294909120925183549451909116600160a01b026001600160e01b03199094169116179190911790555b83856001600160a01b0316876001600160a01b03167fddf252ad1be2c89b69c2b068fc378daa952ba7f163c4a11628f55a4df523b3ef60405160405180910390a4505050505050565b6040805180820190915260008082526020820152610f8f826000541190565b6110015760405162461bcd60e51b815260206004820152602a60248201527f455243373231413a206f776e657220717565727920666f72206e6f6e6578697360448201527f74656e7420746f6b656e000000000000000000000000000000000000000000006064820152608401610485565b60007f00000000000000000000000000000000000000000000000000000000000000008310611062576110547f00000000000000000000000000000000000000000000000000000000000000008461173e565b61105f9060016116e1565b90505b825b8181106110cc576000818152600360209081526040918290208251808401909352546001600160a01b038116808452600160a01b90910467ffffffffffffffff1691830191909152156110b957949350505050565b50806110c481611781565b915050611064565b5060405162461bcd60e51b815260206004820152602f60248201527f455243373231413a20756e61626c6520746f2064657465726d696e652074686560448201527f206f776e6572206f6620746f6b656e00000000000000000000000000000000006064820152608401610485565b60006001600160a01b0384163b1561129357604051630a85bd0160e11b81526001600160a01b0385169063150b7a029061117f903390899088908890600401611667565b602060405180830381600087803b15801561119957600080fd5b505af19250505080156111c9575060408051601f3d908101601f191682019092526111c6918101906115d6565b60015b611279573d8080156111f7576040519150601f19603f3d011682016040523d82523d6000602084013e6111fc565b606091505b5080516112715760405162461bcd60e51b815260206004820152603360248201527f455243373231413a207472616e7366657220746f206e6f6e204552433732315260448201527f6563656976657220696d706c656d656e746572000000000000000000000000006064820152608401610485565b805181602001fd5b6001600160e01b031916630a85bd0160e11b149050611297565b5060015b949350505050565b6060816112df57505060408051808201909152600181527f3000000000000000000000000000000000000000000000000000000000000000602082015290565b8160005b811561130957806112f3816117d3565b91506113029050600a836116f9565b91506112e3565b60008167ffffffffffffffff81111561132457611324611844565b6040519080825280601f01601f19166020018201604052801561134e576020820181803683370190505b5090505b84156112975761136360018361173e565b9150611370600a866117ee565b61137b9060306116e1565b60f81b8183815181106113905761139061182e565b60200101907effffffffffffffffffffffffffffffffffffffffffffffffffffffffffffff1916908160001a9053506113ca600a866116f9565b9450611352565b80356001600160a01b03811681146113e857600080fd5b919050565b6000602082840312156113ff57600080fd5b610b19826113d1565b6000806040838503121561141b57600080fd5b611424836113d1565b9150611432602084016113d1565b90509250929050565b60008060006060848603121561145057600080fd5b611459846113d1565b9250611467602085016113d1565b9150604084013590509250925092565b6000806000806080858703121561148d57600080fd5b611496856113d1565b93506114a4602086016113d1565b925060408501359150606085013567ffffffffffffffff808211156114c857600080fd5b818701915087601f8301126114dc57600080fd5b8135818111156114ee576114ee611844565b604051601f8201601f19908116603f0116810190838211818310171561151657611516611844565b816040528281528a602084870101111561152f57600080fd5b82602086016020830137600060208483010152809550505050505092959194509250565b6000806040838503121561156657600080fd5b61156f836113d1565b91506020830135801515811461158457600080fd5b809150509250929050565b600080604083850312156115a257600080fd5b6115ab836113d1565b946020939093013593505050565b6000602082840312156115cb57600080fd5b8135610b198161185a565b6000602082840312156115e857600080fd5b8151610b198161185a565b60006020828403121561160557600080fd5b5035919050565b60008151808452611624816020860160208601611755565b601f01601f19169290920160200192915050565b6000835161164a818460208801611755565b83519083019061165e818360208801611755565b01949350505050565b60006001600160a01b03808716835280861660208401525083604083015260806060830152611699608083018461160c565b9695505050505050565b602081526000610b19602083018461160c565b60006fffffffffffffffffffffffffffffffff80831681851680830382111561165e5761165e611802565b600082198211156116f4576116f4611802565b500190565b60008261170857611708611818565b500490565b60006fffffffffffffffffffffffffffffffff8381169083168181101561173657611736611802565b039392505050565b60008282101561175057611750611802565b500390565b60005b83811015611770578181015183820152602001611758565b83811115610a325750506000910152565b60008161179057611790611802565b506000190190565b600181811c908216806117ac57607f821691505b602082108114156117cd57634e487b7160e01b600052602260045260246000fd5b50919050565b60006000198214156117e7576117e7611802565b5060010190565b6000826117fd576117fd611818565b500690565b634e487b7160e01b600052601160045260246000fd5b634e487b7160e01b600052601260045260246000fd5b634e487b7160e01b600052603260045260246000fd5b634e487b7160e01b600052604160045260246000fd5b6001600160e01b03198116811461187057600080fd5b5056fea164736f6c6343000805000a",
  "linkReferences": {},
  "deployedLinkReferences": {}
}