{
  "_format": "hh-sol-artifact-1",
  "contractName": "BEE",
  "sourceName": "contracts/Bee.sol",
  "abi": [
    {
      "inputs": [
        {
          "internalType": "string",
          "name": "name",
          "type": "string"
        },
        {
          "internalType": "string",
          "name": "symbol",
          "type": "string"
        },
        {
          "internalType": "uint256",
          "name": "_maxBatchSize",
          "type": "uint256"
        },
        {
          "internalType": "uint256",
          "name": "_collectionSize",
          "type": "uint256"
        }
      ],
      "stateMutability": "nonpayable",
      "type": "constructor"
    },
    {
      "anonymous": false,
      "inputs": [
        {
          "indexed": true,
          "internalType": "address",
          "name": "owner",
          "type": "address"
        },
        {
          "indexed": true,
          "internalType": "address",
          "name": "approved",
          "type": "address"
        },
        {
          "indexed": true,
          "internalType": "uint256",
          "name": "tokenId",
          "type": "uint256"
        }
      ],
      "name": "Approval",
      "type": "event"
    },
    {
      "anonymous": false,
      "inputs": [
        {
          "indexed": true,
          "internalType": "address",
          "name": "owner",
          "type": "address"
        },
        {
          "indexed": true,
          "internalType": "address",
          "name": "operator",
          "type": "address"
        },
        {
          "indexed": false,
          "internalType": "bool",
          "name": "approved",
          "type": "bool"
        }
      ],
      "name": "ApprovalForAll",
      "type": "event"
    },
    {
      "anonymous": false,
      "inputs": [
        {
          "indexed": true,
          "internalType": "address",
          "name": "previousOwner",
          "type": "address"
        },
        {
          "indexed": true,
          "internalType": "address",
          "name": "newOwner",
          "type": "address"
        }
      ],
      "name": "OwnershipTransferred",
      "type": "event"
    },
    {
      "anonymous": false,
      "inputs": [
        {
          "indexed": true,
          "internalType": "address",
          "name": "from",
          "type": "address"
        },
        {
          "indexed": true,
          "internalType": "address",
          "name": "to",
          "type": "address"
        },
        {
          "indexed": true,
          "internalType": "uint256",
          "name": "tokenId",
          "type": "uint256"
        }
      ],
      "name": "Transfer",
      "type": "event"
    },
    {
      "inputs": [
        {
          "internalType": "uint256",
          "name": "_quantity",
          "type": "uint256"
        },
        {
          "internalType": "bytes32[]",
          "name": "_proof",
          "type": "bytes32[]"
        }
      ],
      "name": "adoptBunny",
      "outputs": [],
      "stateMutability": "payable",
      "type": "function"
    },
    {
      "inputs": [],
      "name": "adoptionLimit",
      "outputs": [
        {
          "internalType": "uint256",
          "name": "",
          "type": "uint256"
        }
      ],
      "stateMutability": "view",
      "type": "function"
    },
    {
      "inputs": [
        {
          "internalType": "address",
          "name": "to",
          "type": "address"
        },
        {
          "internalType": "uint256",
          "name": "tokenId",
          "type": "uint256"
        }
      ],
      "name": "approve",
      "outputs": [],
      "stateMutability": "nonpayable",
      "type": "function"
    },
    {
      "inputs": [
        {
          "internalType": "address",
          "name": "owner",
          "type": "address"
        }
      ],
      "name": "balanceOf",
      "outputs": [
        {
          "internalType": "uint256",
          "name": "",
          "type": "uint256"
        }
      ],
      "stateMutability": "view",
      "type": "function"
    },
    {
      "inputs": [],
      "name": "currentSupply",
      "outputs": [
        {
          "internalType": "uint256",
          "name": "",
          "type": "uint256"
        }
      ],
      "stateMutability": "view",
      "type": "function"
    },
    {
      "inputs": [
        {
          "internalType": "uint256",
          "name": "tokenId",
          "type": "uint256"
        }
      ],
      "name": "getApproved",
      "outputs": [
        {
          "internalType": "address",
          "name": "",
          "type": "address"
        }
      ],
      "stateMutability": "view",
      "type": "function"
    },
    {
      "inputs": [],
      "name": "getBalance",
      "outputs": [
        {
          "internalType": "uint256",
          "name": "",
          "type": "uint256"
        }
      ],
      "stateMutability": "view",
      "type": "function"
    },
    {
      "inputs": [],
      "name": "getBaseURI",
      "outputs": [
        {
          "internalType": "string",
          "name": "",
          "type": "string"
        }
      ],
      "stateMutability": "view",
      "type": "function"
    },
    {
      "inputs": [],
      "name": "getMaxBatchSize",
      "outputs": [
        {
          "internalType": "uint256",
          "name": "",
          "type": "uint256"
        }
      ],
      "stateMutability": "view",
      "type": "function"
    },
    {
      "inputs": [],
      "name": "getMaxSupply",
      "outputs": [
        {
          "internalType": "uint256",
          "name": "",
          "type": "uint256"
        }
      ],
      "stateMutability": "view",
      "type": "function"
    },
    {
      "inputs": [
        {
          "internalType": "address",
          "name": "owner",
          "type": "address"
        }
      ],
      "name": "getMintedCountByOwner",
      "outputs": [
        {
          "internalType": "uint256",
          "name": "",
          "type": "uint256"
        }
      ],
      "stateMutability": "view",
      "type": "function"
    },
    {
      "inputs": [
        {
          "internalType": "uint256",
          "name": "tokenId",
          "type": "uint256"
        }
      ],
      "name": "getOwnershipData",
      "outputs": [
        {
          "components": [
            {
              "internalType": "address",
              "name": "addr",
              "type": "address"
            },
            {
              "internalType": "uint64",
              "name": "startTimestamp",
              "type": "uint64"
            }
          ],
          "internalType": "struct ERC721A.TokenOwnership",
          "name": "",
          "type": "tuple"
        }
      ],
      "stateMutability": "view",
      "type": "function"
    },
    {
      "inputs": [
        {
          "internalType": "address",
          "name": "owner",
          "type": "address"
        },
        {
          "internalType": "address",
          "name": "operator",
          "type": "address"
        }
      ],
      "name": "isApprovedForAll",
      "outputs": [
        {
          "internalType": "bool",
          "name": "",
          "type": "bool"
        }
      ],
      "stateMutability": "view",
      "type": "function"
    },
    {
      "inputs": [
        {
          "internalType": "address",
          "name": "_account",
          "type": "address"
        },
        {
          "internalType": "bytes32[]",
          "name": "_proof",
          "type": "bytes32[]"
        }
      ],
      "name": "isWhitelisted",
      "outputs": [
        {
          "internalType": "bool",
          "name": "",
          "type": "bool"
        }
      ],
      "stateMutability": "view",
      "type": "function"
    },
    {
      "inputs": [],
      "name": "name",
      "outputs": [
        {
          "internalType": "string",
          "name": "",
          "type": "string"
        }
      ],
      "stateMutability": "view",
      "type": "function"
    },
    {
      "inputs": [],
      "name": "nextOwnerToExplicitlySet",
      "outputs": [
        {
          "internalType": "uint256",
          "name": "",
          "type": "uint256"
        }
      ],
      "stateMutability": "view",
      "type": "function"
    },
    {
      "inputs": [],
      "name": "owner",
      "outputs": [
        {
          "internalType": "address",
          "name": "",
          "type": "address"
        }
      ],
      "stateMutability": "view",
      "type": "function"
    },
    {
      "inputs": [
        {
          "internalType": "uint256",
          "name": "tokenId",
          "type": "uint256"
        }
      ],
      "name": "ownerOf",
      "outputs": [
        {
          "internalType": "address",
          "name": "",
          "type": "address"
        }
      ],
      "stateMutability": "view",
      "type": "function"
    },
    {
      "inputs": [],
      "name": "price",
      "outputs": [
        {
          "internalType": "uint256",
          "name": "",
          "type": "uint256"
        }
      ],
      "stateMutability": "view",
      "type": "function"
    },
    {
      "inputs": [],
      "name": "renounceOwnership",
      "outputs": [],
      "stateMutability": "nonpayable",
      "type": "function"
    },
    {
      "inputs": [],
      "name": "revealBee",
      "outputs": [],
      "stateMutability": "nonpayable",
      "type": "function"
    },
    {
      "inputs": [
        {
          "internalType": "address",
          "name": "from",
          "type": "address"
        },
        {
          "internalType": "address",
          "name": "to",
          "type": "address"
        },
        {
          "internalType": "uint256",
          "name": "tokenId",
          "type": "uint256"
        }
      ],
      "name": "safeTransferFrom",
      "outputs": [],
      "stateMutability": "nonpayable",
      "type": "function"
    },
    {
      "inputs": [
        {
          "internalType": "address",
          "name": "from",
          "type": "address"
        },
        {
          "internalType": "address",
          "name": "to",
          "type": "address"
        },
        {
          "internalType": "uint256",
          "name": "tokenId",
          "type": "uint256"
        },
        {
          "internalType": "bytes",
          "name": "_data",
          "type": "bytes"
        }
      ],
      "name": "safeTransferFrom",
      "outputs": [],
      "stateMutability": "nonpayable",
      "type": "function"
    },
    {
      "inputs": [],
      "name": "saleOpen",
      "outputs": [
        {
          "internalType": "bool",
          "name": "",
          "type": "bool"
        }
      ],
      "stateMutability": "view",
      "type": "function"
    },
    {
      "inputs": [
        {
          "internalType": "address",
          "name": "operator",
          "type": "address"
        },
        {
          "internalType": "bool",
          "name": "approved",
          "type": "bool"
        }
      ],
      "name": "setApprovalForAll",
      "outputs": [],
      "stateMutability": "nonpayable",
      "type": "function"
    },
    {
      "inputs": [
        {
          "internalType": "uint256",
          "name": "_supply",
          "type": "uint256"
        }
      ],
      "name": "setCurrentSupply",
      "outputs": [],
      "stateMutability": "nonpayable",
      "type": "function"
    },
    {
      "inputs": [
        {
          "internalType": "uint256",
          "name": "_price",
          "type": "uint256"
        }
      ],
      "name": "setPrice",
      "outputs": [],
      "stateMutability": "nonpayable",
      "type": "function"
    },
    {
      "inputs": [
        {
          "internalType": "bytes32",
          "name": "_merkleRoot",
          "type": "bytes32"
        }
      ],
      "name": "setWhitelistUserMerkleRoot",
      "outputs": [],
      "stateMutability": "nonpayable",
      "type": "function"
    },
    {
      "inputs": [
        {
          "internalType": "bytes4",
          "name": "interfaceId",
          "type": "bytes4"
        }
      ],
      "name": "supportsInterface",
      "outputs": [
        {
          "internalType": "bool",
          "name": "",
          "type": "bool"
        }
      ],
      "stateMutability": "view",
      "type": "function"
    },
    {
      "inputs": [],
      "name": "symbol",
      "outputs": [
        {
          "internalType": "string",
          "name": "",
          "type": "string"
        }
      ],
      "stateMutability": "view",
      "type": "function"
    },
    {
      "inputs": [],
      "name": "toggleSale",
      "outputs": [],
      "stateMutability": "nonpayable",
      "type": "function"
    },
    {
      "inputs": [
        {
          "internalType": "uint256",
          "name": "index",
          "type": "uint256"
        }
      ],
      "name": "tokenByIndex",
      "outputs": [
        {
          "internalType": "uint256",
          "name": "",
          "type": "uint256"
        }
      ],
      "stateMutability": "view",
      "type": "function"
    },
    {
      "inputs": [
        {
          "internalType": "address",
          "name": "owner",
          "type": "address"
        },
        {
          "internalType": "uint256",
          "name": "index",
          "type": "uint256"
        }
      ],
      "name": "tokenOfOwnerByIndex",
      "outputs": [
        {
          "internalType": "uint256",
          "name": "",
          "type": "uint256"
        }
      ],
      "stateMutability": "view",
      "type": "function"
    },
    {
      "inputs": [
        {
          "internalType": "uint256",
          "name": "_tokenId",
          "type": "uint256"
        }
      ],
      "name": "tokenURI",
      "outputs": [
        {
          "internalType": "string",
          "name": "",
          "type": "string"
        }
      ],
      "stateMutability": "view",
      "type": "function"
    },
    {
      "inputs": [],
      "name": "totalSupply",
      "outputs": [
        {
          "internalType": "uint256",
          "name": "",
          "type": "uint256"
        }
      ],
      "stateMutability": "view",
      "type": "function"
    },
    {
      "inputs": [
        {
          "internalType": "address",
          "name": "from",
          "type": "address"
        },
        {
          "internalType": "address",
          "name": "to",
          "type": "address"
        },
        {
          "internalType": "uint256",
          "name": "tokenId",
          "type": "uint256"
        }
      ],
      "name": "transferFrom",
      "outputs": [],
      "stateMutability": "nonpayable",
      "type": "function"
    },
    {
      "inputs": [
        {
          "internalType": "address",
          "name": "newOwner",
          "type": "address"
        }
      ],
      "name": "transferOwnership",
      "outputs": [],
      "stateMutability": "nonpayable",
      "type": "function"
    },
    {
      "inputs": [
        {
          "internalType": "string",
          "name": "_newBaseURI",
          "type": "string"
        }
      ],
      "name": "updateBaseURI",
      "outputs": [],
      "stateMutability": "nonpayable",
      "type": "function"
    },
    {
      "inputs": [
        {
          "internalType": "address[]",
          "name": "accounts",
          "type": "address[]"
        }
      ],
      "name": "whitelist",
      "outputs": [],
      "stateMutability": "nonpayable",
      "type": "function"
    },
    {
      "inputs": [],
      "name": "whitelistedUsersMerkleRoot",
      "outputs": [
        {
          "internalType": "bytes32",
          "name": "",
          "type": "bytes32"
        }
      ],
      "stateMutability": "view",
      "type": "function"
    },
    {
      "inputs": [],
      "name": "withdraw",
      "outputs": [],
      "stateMutability": "nonpayable",
      "type": "function"
    },
    {
      "stateMutability": "payable",
      "type": "receive"
    }
  ],
  "bytecode": "0x60006001819055600855600f60c052600b805460ff19169055610160604052605260e0818152906200352f6101003980516200004491600c9160209091019062000205565b50600d805460ff191690556701aa535d3d0c0000600e556064600f553480156200006d57600080fd5b506040516200358138038062003581833981016040819052620000909162000362565b838383836200009f33620001b5565b600081116200010c5760405162461bcd60e51b815260206004820152602e60248201527f455243373231413a20636f6c6c656374696f6e206d757374206861766520612060448201526d6e6f6e7a65726f20737570706c7960901b60648201526084015b60405180910390fd5b600082116200016e5760405162461bcd60e51b815260206004820152602760248201527f455243373231413a206d61782062617463682073697a65206d757374206265206044820152666e6f6e7a65726f60c81b606482015260840162000103565b83516200018390600290602087019062000205565b5082516200019990600390602086019062000205565b5060a09190915260805250506001600955506200042f92505050565b600080546001600160a01b038381166001600160a01b0319831681178455604051919092169283917f8be0079c531659141344cd1fd0a4f28419497f9722a3daafe3b4186f6b6457e09190a35050565b8280546200021390620003dc565b90600052602060002090601f01602090048101928262000237576000855562000282565b82601f106200025257805160ff191683800117855562000282565b8280016001018555821562000282579182015b828111156200028257825182559160200191906001019062000265565b506200029092915062000294565b5090565b5b8082111562000290576000815560010162000295565b600082601f830112620002bd57600080fd5b81516001600160401b0380821115620002da57620002da62000419565b604051601f8301601f19908116603f0116810190828211818310171562000305576200030562000419565b816040528381526020925086838588010111156200032257600080fd5b600091505b8382101562000346578582018301518183018401529082019062000327565b83821115620003585760008385830101525b9695505050505050565b600080600080608085870312156200037957600080fd5b84516001600160401b03808211156200039157600080fd5b6200039f88838901620002ab565b95506020870151915080821115620003b657600080fd5b50620003c587828801620002ab565b604087015160609097015195989097509350505050565b600181811c90821680620003f157607f821691505b602082108114156200041357634e487b7160e01b600052602260045260246000fd5b50919050565b634e487b7160e01b600052604160045260246000fd5b60805160a05160c0516130b46200047b6000396000818161076a015261146101526000818161073401528181611ee601528181611f1001526125e60152600061043d01526130b46000f3fe6080604052600436106102ca5760003560e01c8063874d947b11610179578063b88d4fde116100d6578063e7c00f6e1161008a578063eeac1b9f11610064578063eeac1b9f146107d5578063f2fde38b146107eb578063facbb2dc1461080b57600080fd5b8063e7c00f6e14610725578063e917a28c14610758578063e985e9c51461078c57600080fd5b8063c87b56dd116100bb578063c87b56dd146106cf578063d7224ba0146106ef578063dc5473011461070557600080fd5b8063b88d4fde1461068f578063bd8aa780146106af57600080fd5b806395d89b411161012d578063a035b1fe11610112578063a035b1fe14610646578063a22cb4651461065c578063b09ce8dd1461067c57600080fd5b806395d89b411461061757806399288dbb1461062c57600080fd5b806391b7f5ed1161015e57806391b7f5ed146105895780639231ab2a146105a9578063931688cb146105f757600080fd5b8063874d947b1461054b5780638da5cb5b1461056b57600080fd5b80634c0f38c211610227578063714c5398116101db57806376d840b8116101c057806376d840b81461050b578063771282f6146105205780637d8966e41461053657600080fd5b8063714c5398146104e1578063715018a6146104f657600080fd5b80635a23dd991161020c5780635a23dd99146104815780636352211e146104a157806370a08231146104c157600080fd5b80634c0f38c21461042e5780634f6ccce71461046157600080fd5b806318160ddd1161027e5780632f745c59116102635780632f745c59146103d95780633ccfd60b146103f957806342842e0e1461040e57600080fd5b806318160ddd146103a457806323b872dd146103b957600080fd5b8063081812fc116102af578063081812fc1461032d578063095ea7b31461036557806312065fe01461038757600080fd5b806301ffc9a7146102d657806306fdde031461030b57600080fd5b366102d157005b600080fd5b3480156102e257600080fd5b506102f66102f1366004612c64565b61082b565b60405190151581526020015b60405180910390f35b34801561031757600080fd5b506103206108fc565b6040516103029190612e6f565b34801561033957600080fd5b5061034d610348366004612c4b565b61098e565b6040516001600160a01b039091168152602001610302565b34801561037157600080fd5b50610385610380366004612b82565b610a2e565b005b34801561039357600080fd5b50475b604051908152602001610302565b3480156103b057600080fd5b50600154610396565b3480156103c557600080fd5b506103856103d4366004612a40565b610b61565b3480156103e557600080fd5b506103966103f4366004612b82565b610b6c565b34801561040557600080fd5b50610385610d0f565b34801561041a57600080fd5b50610385610429366004612a40565b610e61565b34801561043a57600080fd5b507f0000000000000000000000000000000000000000000000000000000000000000610396565b34801561046d57600080fd5b5061039661047c366004612c4b565b610e7c565b34801561048d57600080fd5b506102f661049c366004612af8565b610eff565b3480156104ad57600080fd5b5061034d6104bc366004612c4b565b610f6b565b3480156104cd57600080fd5b506103966104dc3660046129eb565b610f7d565b3480156104ed57600080fd5b50610320611020565b34801561050257600080fd5b5061038561102f565b34801561051757600080fd5b50610385611095565b34801561052c57600080fd5b50610396600f5481565b34801561054257600080fd5b506103856110fe565b34801561055757600080fd5b50610385610566366004612c4b565b61116c565b34801561057757600080fd5b506000546001600160a01b031661034d565b34801561059557600080fd5b506103856105a4366004612c4b565b6111cb565b3480156105b557600080fd5b506105c96105c4366004612c4b565b61122a565b6040805182516001600160a01b0316815260209283015167ffffffffffffffff169281019290925201610302565b34801561060357600080fd5b50610385610612366004612c9e565b611247565b34801561062357600080fd5b506103206112b8565b34801561063857600080fd5b50600b546102f69060ff1681565b34801561065257600080fd5b50610396600e5481565b34801561066857600080fd5b50610385610677366004612b46565b6112c7565b61038561068a366004612ce7565b61138c565b34801561069b57600080fd5b506103856106aa366004612a7c565b611588565b3480156106bb57600080fd5b506103856106ca366004612bac565b611617565b3480156106db57600080fd5b506103206106ea366004612c4b565b6116d9565b3480156106fb57600080fd5b5061039660085481565b34801561071157600080fd5b50610385610720366004612c4b565b611827565b34801561073157600080fd5b507f0000000000000000000000000000000000000000000000000000000000000000610396565b34801561076457600080fd5b506103967f000000000000000000000000000000000000000000000000000000000000000081565b34801561079857600080fd5b506102f66107a7366004612a0d565b6001600160a01b03918216600090815260076020908152604080832093909416825291909152205460ff1690565b3480156107e157600080fd5b5061039660105481565b3480156107f757600080fd5b506103856108063660046129eb565b611923565b34801561081757600080fd5b506103966108263660046129eb565b611a05565b60006001600160e01b031982167f80ac58cd00000000000000000000000000000000000000000000000000000000148061088e57506001600160e01b031982167f5b5e139f00000000000000000000000000000000000000000000000000000000145b806108c257506001600160e01b031982167f780e9d6300000000000000000000000000000000000000000000000000000000145b806108f657507f01ffc9a7000000000000000000000000000000000000000000000000000000006001600160e01b03198316145b92915050565b60606002805461090b90612fcf565b80601f016020809104026020016040519081016040528092919081815260200182805461093790612fcf565b80156109845780601f1061095957610100808354040283529160200191610984565b820191906000526020600020905b81548152906001019060200180831161096757829003601f168201915b5050505050905090565b600061099b826001541190565b610a125760405162461bcd60e51b815260206004820152602d60248201527f455243373231413a20617070726f76656420717565727920666f72206e6f6e6560448201527f78697374656e7420746f6b656e0000000000000000000000000000000000000060648201526084015b60405180910390fd5b506000908152600660205260409020546001600160a01b031690565b6000610a3982610f6b565b9050806001600160a01b0316836001600160a01b03161415610ac35760405162461bcd60e51b815260206004820152602260248201527f455243373231413a20617070726f76616c20746f2063757272656e74206f776e60448201527f65720000000000000000000000000000000000000000000000000000000000006064820152608401610a09565b336001600160a01b0382161480610adf5750610adf81336107a7565b610b515760405162461bcd60e51b815260206004820152603960248201527f455243373231413a20617070726f76652063616c6c6572206973206e6f74206f60448201527f776e6572206e6f7220617070726f76656420666f7220616c6c000000000000006064820152608401610a09565b610b5c838383611a10565b505050565b610b5c838383611a79565b6000610b7783610f7d565b8210610beb5760405162461bcd60e51b815260206004820152602260248201527f455243373231413a206f776e657220696e646578206f7574206f6620626f756e60448201527f64730000000000000000000000000000000000000000000000000000000000006064820152608401610a09565b6000610bf660015490565b905060008060005b83811015610ca0576000818152600460209081526040918290208251808401909352546001600160a01b038116808452600160a01b90910467ffffffffffffffff169183019190915215610c5157805192505b876001600160a01b0316836001600160a01b03161415610c8d5786841415610c7f575093506108f692505050565b83610c898161300a565b9450505b5080610c988161300a565b915050610bfe565b5060405162461bcd60e51b815260206004820152602e60248201527f455243373231413a20756e61626c6520746f2067657420746f6b656e206f662060448201527f6f776e657220627920696e6465780000000000000000000000000000000000006064820152608401610a09565b6000546001600160a01b03163314610d695760405162461bcd60e51b815260206004820181905260248201527f4f776e61626c653a2063616c6c6572206973206e6f7420746865206f776e65726044820152606401610a09565b60026009541415610dbc5760405162461bcd60e51b815260206004820152601f60248201527f5265656e7472616e637947756172643a207265656e7472616e742063616c6c006044820152606401610a09565b6002600955604051600090339047908381818185875af1925050503d8060008114610e03576040519150601f19603f3d011682016040523d82523d6000602084013e610e08565b606091505b5050905080610e595760405162461bcd60e51b815260206004820152601060248201527f5472616e73666572206661696c65642e000000000000000000000000000000006044820152606401610a09565b506001600955565b610b5c83838360405180602001604052806000815250611588565b6000610e8760015490565b8210610efb5760405162461bcd60e51b815260206004820152602360248201527f455243373231413a20676c6f62616c20696e646578206f7574206f6620626f7560448201527f6e647300000000000000000000000000000000000000000000000000000000006064820152608401610a09565b5090565b6040516bffffffffffffffffffffffff19606084901b1660208201526000908190603401604051602081830303815290604052805190602001209050610f526010548285611e3b9092919063ffffffff16565b15610f615760019150506108f6565b60009150506108f6565b6000610f7682611e51565b5192915050565b60006001600160a01b038216610ffb5760405162461bcd60e51b815260206004820152602b60248201527f455243373231413a2062616c616e636520717565727920666f7220746865207a60448201527f65726f20616464726573730000000000000000000000000000000000000000006064820152608401610a09565b506001600160a01b03166000908152600560205260409020546001600160801b031690565b6060600c805461090b90612fcf565b6000546001600160a01b031633146110895760405162461bcd60e51b815260206004820181905260248201527f4f776e61626c653a2063616c6c6572206973206e6f7420746865206f776e65726044820152606401610a09565b611093600061201c565b565b6000546001600160a01b031633146110ef5760405162461bcd60e51b815260206004820181905260248201527f4f776e61626c653a2063616c6c6572206973206e6f7420746865206f776e65726044820152606401610a09565b600d805460ff19166001179055565b6000546001600160a01b031633146111585760405162461bcd60e51b815260206004820181905260248201527f4f776e61626c653a2063616c6c6572206973206e6f7420746865206f776e65726044820152606401610a09565b600b805460ff19811660ff90911615179055565b6000546001600160a01b031633146111c65760405162461bcd60e51b815260206004820181905260248201527f4f776e61626c653a2063616c6c6572206973206e6f7420746865206f776e65726044820152606401610a09565b601055565b6000546001600160a01b031633146112255760405162461bcd60e51b815260206004820181905260248201527f4f776e61626c653a2063616c6c6572206973206e6f7420746865206f776e65726044820152606401610a09565b600e55565b60408051808201909152600080825260208201526108f682611e51565b6000546001600160a01b031633146112a15760405162461bcd60e51b815260206004820181905260248201527f4f776e61626c653a2063616c6c6572206973206e6f7420746865206f776e65726044820152606401610a09565b80516112b490600c906020840190612875565b5050565b60606003805461090b90612fcf565b6001600160a01b0382163314156113205760405162461bcd60e51b815260206004820152601a60248201527f455243373231413a20617070726f766520746f2063616c6c65720000000000006044820152606401610a09565b3360008181526007602090815260408083206001600160a01b03871680855290835292819020805460ff191686151590811790915590519081529192917f17307eab39ab6107e8899845ad3d59bd9653f200f220920489ca2b5937696c31910160405180910390a35050565b600f548261139960015490565b6113a39190612f02565b106113f05760405162461bcd60e51b815260206004820152601360248201527f5265616368696e67206d617820737570706c79000000000000000000000000006044820152606401610a09565b6000546001600160a01b031633146115685781600e546114109190612f2e565b34101561145f5760405162461bcd60e51b815260206004820152601660248201527f4e6565647320746f2073656e64206d6f726520657468000000000000000000006044820152606401610a09565b7f00000000000000000000000000000000000000000000000000000000000000008261148a33611a05565b6114949190612f02565b11156114e25760405162461bcd60e51b815260206004820152601a60248201527f457863656564206d61782061646f7074696f6e20616d6f756e740000000000006044820152606401610a09565b6114ec3382610eff565b61156857600b5460ff166115685760405162461bcd60e51b815260206004820152602760248201527f536f72727921212063616e2774206d696e74207768656e2073616c652069732060448201527f636c6f7365642e000000000000000000000000000000000000000000000000006064820152608401610a09565b6115723383612079565b6112b482600e546115839190612f2e565b612093565b611593848484611a79565b61159f84848484612121565b6116115760405162461bcd60e51b815260206004820152603360248201527f455243373231413a207472616e7366657220746f206e6f6e204552433732315260448201527f6563656976657220696d706c656d656e746572000000000000000000000000006064820152608401610a09565b50505050565b6000546001600160a01b031633146116715760405162461bcd60e51b815260206004820181905260248201527f4f776e61626c653a2063616c6c6572206973206e6f7420746865206f776e65726044820152606401610a09565b60005b81518110156112b45760016011600084848151811061169557611695613065565b6020908102919091018101516001600160a01b03168252810191909152604001600020805460ff1916911515919091179055806116d18161300a565b915050611674565b60606116e6826001541190565b6117585760405162461bcd60e51b815260206004820152602c60248201527f4552433732314d657461646174613a2055524920736574206f66206e6f6e657860448201527f697374656e7420746f6b656e00000000000000000000000000000000000000006064820152608401610a09565b600d5460ff161561179557600c61176e83612285565b60405160200161177f929190612d60565b6040516020818303038152906040529050919050565b600c80546117a290612fcf565b80601f01602080910402602001604051908101604052809291908181526020018280546117ce90612fcf565b801561181b5780601f106117f05761010080835404028352916020019161181b565b820191906000526020600020905b8154815290600101906020018083116117fe57829003601f168201915b50505050509050919050565b6000546001600160a01b031633146118815760405162461bcd60e51b815260206004820181905260248201527f4f776e61626c653a2063616c6c6572206973206e6f7420746865206f776e65726044820152606401610a09565b600f54811161191e5760405162461bcd60e51b815260206004820152605a60248201527f50726f7669646520612076616c696420737570706c7920692e652e206772656160448201527f746572207468616e2063757272656e7420737570706c7920616e64206c65737360648201527f207468616e2f657175616c20746f206d617820737570706c792e000000000000608482015260a401610a09565b600f55565b6000546001600160a01b0316331461197d5760405162461bcd60e51b815260206004820181905260248201527f4f776e61626c653a2063616c6c6572206973206e6f7420746865206f776e65726044820152606401610a09565b6001600160a01b0381166119f95760405162461bcd60e51b815260206004820152602660248201527f4f776e61626c653a206e6577206f776e657220697320746865207a65726f206160448201527f64647265737300000000000000000000000000000000000000000000000000006064820152608401610a09565b611a028161201c565b50565b60006108f6826123b7565b600082815260066020526040808220805473ffffffffffffffffffffffffffffffffffffffff19166001600160a01b0387811691821790925591518593918516917f8c5be1e5ebec7d5bd14f71427d1e84f3dd0314c0f7b2291e5b200ac8c7c3b92591a4505050565b6000611a8482611e51565b80519091506000906001600160a01b0316336001600160a01b03161480611abb575033611ab08461098e565b6001600160a01b0316145b80611acd57508151611acd90336107a7565b905080611b425760405162461bcd60e51b815260206004820152603260248201527f455243373231413a207472616e736665722063616c6c6572206973206e6f742060448201527f6f776e6572206e6f7220617070726f76656400000000000000000000000000006064820152608401610a09565b846001600160a01b031682600001516001600160a01b031614611bcd5760405162461bcd60e51b815260206004820152602660248201527f455243373231413a207472616e736665722066726f6d20696e636f727265637460448201527f206f776e657200000000000000000000000000000000000000000000000000006064820152608401610a09565b6001600160a01b038416611c495760405162461bcd60e51b815260206004820152602560248201527f455243373231413a207472616e7366657220746f20746865207a65726f20616460448201527f64726573730000000000000000000000000000000000000000000000000000006064820152608401610a09565b611c596000848460000151611a10565b6001600160a01b0385166000908152600560205260408120805460019290611c8b9084906001600160801b0316612f4d565b82546101009290920a6001600160801b038181021990931691831602179091556001600160a01b03861660009081526005602052604081208054600194509092611cd791859116612ed7565b82546001600160801b039182166101009390930a9283029190920219909116179055506040805180820182526001600160a01b03808716825267ffffffffffffffff428116602080850191825260008981526004909152948520935184549151909216600160a01b026001600160e01b03199091169190921617179055611d5f846001612f02565b6000818152600460205260409020549091506001600160a01b0316611df157611d89816001541190565b15611df15760408051808201825284516001600160a01b03908116825260208087015167ffffffffffffffff9081168285019081526000878152600490935294909120925183549451909116600160a01b026001600160e01b03199094169116179190911790555b83856001600160a01b0316876001600160a01b03167fddf252ad1be2c89b69c2b068fc378daa952ba7f163c4a11628f55a4df523b3ef60405160405180910390a45b505050505050565b600082611e488584612461565b14949350505050565b6040805180820190915260008082526020820152611e70826001541190565b611ee25760405162461bcd60e51b815260206004820152602a60248201527f455243373231413a206f776e657220717565727920666f72206e6f6e6578697360448201527f74656e7420746f6b656e000000000000000000000000000000000000000000006064820152608401610a09565b60007f00000000000000000000000000000000000000000000000000000000000000008310611f4357611f357f000000000000000000000000000000000000000000000000000000000000000084612f75565b611f40906001612f02565b90505b825b818110611fad576000818152600460209081526040918290208251808401909352546001600160a01b038116808452600160a01b90910467ffffffffffffffff169183019190915215611f9a57949350505050565b5080611fa581612fb8565b915050611f45565b5060405162461bcd60e51b815260206004820152602f60248201527f455243373231413a20756e61626c6520746f2064657465726d696e652074686560448201527f206f776e6572206f6620746f6b656e00000000000000000000000000000000006064820152608401610a09565b600080546001600160a01b0383811673ffffffffffffffffffffffffffffffffffffffff19831681178455604051919092169283917f8be0079c531659141344cd1fd0a4f28419497f9722a3daafe3b4186f6b6457e09190a35050565b6112b482826040518060200160405280600081525061250d565b803410156120e35760405162461bcd60e51b815260206004820152601660248201527f4e65656420746f2073656e64206d6f7265204554482e000000000000000000006044820152606401610a09565b80341115611a0257336108fc6120f98334612f75565b6040518115909202916000818181858888f193505050501580156112b4573d6000803e3d6000fd5b60006001600160a01b0384163b1561227957604051630a85bd0160e11b81526001600160a01b0385169063150b7a0290612165903390899088908890600401612e33565b602060405180830381600087803b15801561217f57600080fd5b505af19250505080156121af575060408051601f3d908101601f191682019092526121ac91810190612c81565b60015b61225f573d8080156121dd576040519150601f19603f3d011682016040523d82523d6000602084013e6121e2565b606091505b5080516122575760405162461bcd60e51b815260206004820152603360248201527f455243373231413a207472616e7366657220746f206e6f6e204552433732315260448201527f6563656976657220696d706c656d656e746572000000000000000000000000006064820152608401610a09565b805181602001fd5b6001600160e01b031916630a85bd0160e11b14905061227d565b5060015b949350505050565b6060816122c557505060408051808201909152600181527f3000000000000000000000000000000000000000000000000000000000000000602082015290565b8160005b81156122ef57806122d98161300a565b91506122e89050600a83612f1a565b91506122c9565b60008167ffffffffffffffff81111561230a5761230a61307b565b6040519080825280601f01601f191660200182016040528015612334576020820181803683370190505b5090505b841561227d57612349600183612f75565b9150612356600a86613025565b612361906030612f02565b60f81b81838151811061237657612376613065565b60200101907effffffffffffffffffffffffffffffffffffffffffffffffffffffffffffff1916908160001a9053506123b0600a86612f1a565b9450612338565b60006001600160a01b0382166124355760405162461bcd60e51b815260206004820152603160248201527f455243373231413a206e756d626572206d696e74656420717565727920666f7260448201527f20746865207a65726f20616464726573730000000000000000000000000000006064820152608401610a09565b506001600160a01b0316600090815260056020526040902054600160801b90046001600160801b031690565b600081815b845181101561250557600085828151811061248357612483613065565b602002602001015190508083116124c55760408051602081018590529081018290526060016040516020818303038152906040528051906020012092506124f2565b60408051602081018390529081018490526060016040516020818303038152906040528051906020012092505b50806124fd8161300a565b915050612466565b509392505050565b6001546001600160a01b03841661258c5760405162461bcd60e51b815260206004820152602160248201527f455243373231413a206d696e7420746f20746865207a65726f2061646472657360448201527f73000000000000000000000000000000000000000000000000000000000000006064820152608401610a09565b612597816001541190565b156125e45760405162461bcd60e51b815260206004820152601d60248201527f455243373231413a20746f6b656e20616c7265616479206d696e7465640000006044820152606401610a09565b7f000000000000000000000000000000000000000000000000000000000000000083111561267a5760405162461bcd60e51b815260206004820152602260248201527f455243373231413a207175616e7469747920746f206d696e7420746f6f20686960448201527f67680000000000000000000000000000000000000000000000000000000000006064820152608401610a09565b6001600160a01b0384166000908152600560209081526040918290208251808401845290546001600160801b038082168352600160801b90910416918101919091528151808301909252805190919081906126d6908790612ed7565b6001600160801b031681526020018583602001516126f49190612ed7565b6001600160801b039081169091526001600160a01b0380881660008181526005602090815260408083208751978301518716600160801b0297909616969096179094558451808601865291825267ffffffffffffffff4281168386019081528883526004909552948120915182549451909516600160a01b026001600160e01b031990941694909216939093179190911790915582905b8581101561286a5760405182906001600160a01b038916906000907fddf252ad1be2c89b69c2b068fc378daa952ba7f163c4a11628f55a4df523b3ef908290a46127d86000888488612121565b61284a5760405162461bcd60e51b815260206004820152603360248201527f455243373231413a207472616e7366657220746f206e6f6e204552433732315260448201527f6563656976657220696d706c656d656e746572000000000000000000000000006064820152608401610a09565b816128548161300a565b92505080806128629061300a565b91505061278b565b506001819055611e33565b82805461288190612fcf565b90600052602060002090601f0160209004810192826128a357600085556128e9565b82601f106128bc57805160ff19168380011785556128e9565b828001600101855582156128e9579182015b828111156128e95782518255916020019190600101906128ce565b50610efb9291505b80821115610efb57600081556001016128f1565b600067ffffffffffffffff83111561291f5761291f61307b565b612932601f8401601f1916602001612e82565b905082815283838301111561294657600080fd5b828260208301376000602084830101529392505050565b80356001600160a01b038116811461297457600080fd5b919050565b600082601f83011261298a57600080fd5b8135602061299f61299a83612eb3565b612e82565b80838252828201915082860187848660051b89010111156129bf57600080fd5b60005b858110156129de578135845292840192908401906001016129c2565b5090979650505050505050565b6000602082840312156129fd57600080fd5b612a068261295d565b9392505050565b60008060408385031215612a2057600080fd5b612a298361295d565b9150612a376020840161295d565b90509250929050565b600080600060608486031215612a5557600080fd5b612a5e8461295d565b9250612a6c6020850161295d565b9150604084013590509250925092565b60008060008060808587031215612a9257600080fd5b612a9b8561295d565b9350612aa96020860161295d565b925060408501359150606085013567ffffffffffffffff811115612acc57600080fd5b8501601f81018713612add57600080fd5b612aec87823560208401612905565b91505092959194509250565b60008060408385031215612b0b57600080fd5b612b148361295d565b9150602083013567ffffffffffffffff811115612b3057600080fd5b612b3c85828601612979565b9150509250929050565b60008060408385031215612b5957600080fd5b612b628361295d565b915060208301358015158114612b7757600080fd5b809150509250929050565b60008060408385031215612b9557600080fd5b612b9e8361295d565b946020939093013593505050565b60006020808385031215612bbf57600080fd5b823567ffffffffffffffff811115612bd657600080fd5b8301601f81018513612be757600080fd5b8035612bf561299a82612eb3565b80828252848201915084840188868560051b8701011115612c1557600080fd5b600094505b83851015612c3f57612c2b8161295d565b835260019490940193918501918501612c1a565b50979650505050505050565b600060208284031215612c5d57600080fd5b5035919050565b600060208284031215612c7657600080fd5b8135612a0681613091565b600060208284031215612c9357600080fd5b8151612a0681613091565b600060208284031215612cb057600080fd5b813567ffffffffffffffff811115612cc757600080fd5b8201601f81018413612cd857600080fd5b61227d84823560208401612905565b60008060408385031215612cfa57600080fd5b82359150602083013567ffffffffffffffff811115612b3057600080fd5b60008151808452612d30816020860160208601612f8c565b601f01601f19169290920160200192915050565b60008151612d56818560208601612f8c565b9290920192915050565b600080845481600182811c915080831680612d7c57607f831692505b6020808410821415612d9c57634e487b7160e01b86526022600452602486fd5b818015612db05760018114612dc157612dee565b60ff19861689528489019650612dee565b60008b81526020902060005b86811015612de65781548b820152908501908301612dcd565b505084890196505b505050505050612e2a612e018286612d44565b7f2e6a736f6e000000000000000000000000000000000000000000000000000000815260050190565b95945050505050565b60006001600160a01b03808716835280861660208401525083604083015260806060830152612e656080830184612d18565b9695505050505050565b602081526000612a066020830184612d18565b604051601f8201601f1916810167ffffffffffffffff81118282101715612eab57612eab61307b565b604052919050565b600067ffffffffffffffff821115612ecd57612ecd61307b565b5060051b60200190565b60006001600160801b03808316818516808303821115612ef957612ef9613039565b01949350505050565b60008219821115612f1557612f15613039565b500190565b600082612f2957612f2961304f565b500490565b6000816000190483118215151615612f4857612f48613039565b500290565b60006001600160801b0383811690831681811015612f6d57612f6d613039565b039392505050565b600082821015612f8757612f87613039565b500390565b60005b83811015612fa7578181015183820152602001612f8f565b838111156116115750506000910152565b600081612fc757612fc7613039565b506000190190565b600181811c90821680612fe357607f821691505b6020821081141561300457634e487b7160e01b600052602260045260246000fd5b50919050565b600060001982141561301e5761301e613039565b5060010190565b6000826130345761303461304f565b500690565b634e487b7160e01b600052601160045260246000fd5b634e487b7160e01b600052601260045260246000fd5b634e487b7160e01b600052603260045260246000fd5b634e487b7160e01b600052604160045260246000fd5b6001600160e01b031981168114611a0257600080fdfea164736f6c6343000805000a68747470733a2f2f646162756e6e792e6d7970696e6174612e636c6f75642f697066732f516d54794454374b4376696a7a61504463457155366e384a5a5037553944656356576e466e754776747843654668",
  "linkReferences": {},
  "deployedLinkReferences": {}
}